{
  "_format": "hh-sol-artifact-1",
  "contractName": "coffee",
  "sourceName": "contracts/Coffee.sol",
  "abi": [
    {
      "inputs": [],
      "stateMutability": "nonpayable",
      "type": "constructor"
    },
    {
      "anonymous": false,
      "inputs": [
        {
          "indexed": false,
          "internalType": "string",
          "name": "name",
          "type": "string"
        },
        {
          "indexed": false,
          "internalType": "address",
          "name": "ad",
          "type": "address"
        },
        {
          "indexed": false,
          "internalType": "uint256",
          "name": "amount",
          "type": "uint256"
        }
      ],
      "name": "Buyerdetail",
      "type": "event"
    },
    {
      "inputs": [
        {
          "internalType": "string",
          "name": "_name",
          "type": "string"
        },
        {
          "internalType": "string",
          "name": "_message",
          "type": "string"
        },
        {
          "internalType": "string",
          "name": "_varieties",
          "type": "string"
        }
      ],
      "name": "BuyChai",
      "outputs": [],
      "stateMutability": "payable",
      "type": "function"
    },
    {
      "inputs": [
        {
          "internalType": "uint256",
          "name": "",
          "type": "uint256"
        }
      ],
      "name": "buyer",
      "outputs": [
        {
          "internalType": "string",
          "name": "name",
          "type": "string"
        },
        {
          "internalType": "string",
          "name": "message",
          "type": "string"
        },
        {
          "internalType": "string",
          "name": "varieties",
          "type": "string"
        },
        {
          "internalType": "address",
          "name": "ad",
          "type": "address"
        },
        {
          "internalType": "uint256",
          "name": "value",
          "type": "uint256"
        },
        {
          "internalType": "uint256",
          "name": "timestamp",
          "type": "uint256"
        }
      ],
      "stateMutability": "view",
      "type": "function"
    },
    {
      "inputs": [],
      "name": "listofbuyer",
      "outputs": [
        {
          "components": [
            {
              "internalType": "string",
              "name": "name",
              "type": "string"
            },
            {
              "internalType": "string",
              "name": "message",
              "type": "string"
            },
            {
              "internalType": "string",
              "name": "varieties",
              "type": "string"
            },
            {
              "internalType": "address",
              "name": "ad",
              "type": "address"
            },
            {
              "internalType": "uint256",
              "name": "value",
              "type": "uint256"
            },
            {
              "internalType": "uint256",
              "name": "timestamp",
              "type": "uint256"
            }
          ],
          "internalType": "struct coffee.Buyer[]",
          "name": "",
          "type": "tuple[]"
        }
      ],
      "stateMutability": "view",
      "type": "function"
    }
  ],
  "bytecode": "0x608060405234801561001057600080fd5b50336000806101000a81548173ffffffffffffffffffffffffffffffffffffffff021916908373ffffffffffffffffffffffffffffffffffffffff160217905550611055806100606000396000f3fe6080604052600436106100345760003560e01c80634dd4acaf146100395780636b332bb61461007b578063f647209914610097575b600080fd5b34801561004557600080fd5b50610060600480360381019061005b9190610817565b6100c2565b60405161007296959493929190610924565b60405180910390f35b610095600480360381019061009091906109ff565b6102c6565b005b3480156100a357600080fd5b506100ac610558565b6040516100b99190610c74565b60405180910390f35b600181815481106100d257600080fd5b90600052602060002090600602016000915090508060000180546100f590610cc5565b80601f016020809104026020016040519081016040528092919081815260200182805461012190610cc5565b801561016e5780601f106101435761010080835404028352916020019161016e565b820191906000526020600020905b81548152906001019060200180831161015157829003601f168201915b50505050509080600101805461018390610cc5565b80601f01602080910402602001604051908101604052809291908181526020018280546101af90610cc5565b80156101fc5780601f106101d1576101008083540402835291602001916101fc565b820191906000526020600020905b8154815290600101906020018083116101df57829003601f168201915b50505050509080600201805461021190610cc5565b80601f016020809104026020016040519081016040528092919081815260200182805461023d90610cc5565b801561028a5780601f1061025f5761010080835404028352916020019161028a565b820191906000526020600020905b81548152906001019060200180831161026d57829003601f168201915b5050505050908060030160009054906101000a900473ffffffffffffffffffffffffffffffffffffffff16908060040154908060050154905086565b600f34116102d357600080fd5b60016040518060c0016040528088888080601f016020809104026020016040519081016040528093929190818152602001838380828437600081840152601f19601f82011690508083019250505050505050815260200186868080601f016020809104026020016040519081016040528093929190818152602001838380828437600081840152601f19601f82011690508083019250505050505050815260200184848080601f016020809104026020016040519081016040528093929190818152602001838380828437600081840152601f19601f8201169050808301925050505050505081526020013373ffffffffffffffffffffffffffffffffffffffff16815260200134815260200142815250908060018154018082558091505060019003906000526020600020906006020160009091909190915060008201518160000190816104229190610ed1565b5060208201518160010190816104389190610ed1565b50604082015181600201908161044e9190610ed1565b5060608201518160030160006101000a81548173ffffffffffffffffffffffffffffffffffffffff021916908373ffffffffffffffffffffffffffffffffffffffff1602179055506080820151816004015560a08201518160050155505060008054906101000a900473ffffffffffffffffffffffffffffffffffffffff1673ffffffffffffffffffffffffffffffffffffffff166108fc349081150290604051600060405180830381858888f19350505050158015610512573d6000803e3d6000fd5b507f391dedf299135d2722f737265167ec46b061a8e789bb2167036ff8829520d592868633346040516105489493929190610fdf565b60405180910390a1505050505050565b60606001805480602002602001604051908101604052809291908181526020016000905b828210156107ce57838290600052602060002090600602016040518060c00160405290816000820180546105af90610cc5565b80601f01602080910402602001604051908101604052809291908181526020018280546105db90610cc5565b80156106285780601f106105fd57610100808354040283529160200191610628565b820191906000526020600020905b81548152906001019060200180831161060b57829003601f168201915b5050505050815260200160018201805461064190610cc5565b80601f016020809104026020016040519081016040528092919081815260200182805461066d90610cc5565b80156106ba5780601f1061068f576101008083540402835291602001916106ba565b820191906000526020600020905b81548152906001019060200180831161069d57829003601f168201915b505050505081526020016002820180546106d390610cc5565b80601f01602080910402602001604051908101604052809291908181526020018280546106ff90610cc5565b801561074c5780601f106107215761010080835404028352916020019161074c565b820191906000526020600020905b81548152906001019060200180831161072f57829003601f168201915b505050505081526020016003820160009054906101000a900473ffffffffffffffffffffffffffffffffffffffff1673ffffffffffffffffffffffffffffffffffffffff1673ffffffffffffffffffffffffffffffffffffffff168152602001600482015481526020016005820154815250508152602001906001019061057c565b50505050905090565b600080fd5b600080fd5b6000819050919050565b6107f4816107e1565b81146107ff57600080fd5b50565b600081359050610811816107eb565b92915050565b60006020828403121561082d5761082c6107d7565b5b600061083b84828501610802565b91505092915050565b600081519050919050565b600082825260208201905092915050565b60005b8381101561087e578082015181840152602081019050610863565b60008484015250505050565b6000601f19601f8301169050919050565b60006108a682610844565b6108b0818561084f565b93506108c0818560208601610860565b6108c98161088a565b840191505092915050565b600073ffffffffffffffffffffffffffffffffffffffff82169050919050565b60006108ff826108d4565b9050919050565b61090f816108f4565b82525050565b61091e816107e1565b82525050565b600060c082019050818103600083015261093e818961089b565b90508181036020830152610952818861089b565b90508181036040830152610966818761089b565b90506109756060830186610906565b6109826080830185610915565b61098f60a0830184610915565b979650505050505050565b600080fd5b600080fd5b600080fd5b60008083601f8401126109bf576109be61099a565b5b8235905067ffffffffffffffff8111156109dc576109db61099f565b5b6020830191508360018202830111156109f8576109f76109a4565b5b9250929050565b60008060008060008060608789031215610a1c57610a1b6107d7565b5b600087013567ffffffffffffffff811115610a3a57610a396107dc565b5b610a4689828a016109a9565b9650965050602087013567ffffffffffffffff811115610a6957610a686107dc565b5b610a7589828a016109a9565b9450945050604087013567ffffffffffffffff811115610a9857610a976107dc565b5b610aa489828a016109a9565b92509250509295509295509295565b600081519050919050565b600082825260208201905092915050565b6000819050602082019050919050565b600082825260208201905092915050565b6000610afb82610844565b610b058185610adf565b9350610b15818560208601610860565b610b1e8161088a565b840191505092915050565b610b32816108f4565b82525050565b610b41816107e1565b82525050565b600060c0830160008301518482036000860152610b648282610af0565b91505060208301518482036020860152610b7e8282610af0565b91505060408301518482036040860152610b988282610af0565b9150506060830151610bad6060860182610b29565b506080830151610bc06080860182610b38565b5060a0830151610bd360a0860182610b38565b508091505092915050565b6000610bea8383610b47565b905092915050565b6000602082019050919050565b6000610c0a82610ab3565b610c148185610abe565b935083602082028501610c2685610acf565b8060005b85811015610c625784840389528151610c438582610bde565b9450610c4e83610bf2565b925060208a01995050600181019050610c2a565b50829750879550505050505092915050565b60006020820190508181036000830152610c8e8184610bff565b905092915050565b7f4e487b7100000000000000000000000000000000000000000000000000000000600052602260045260246000fd5b60006002820490506001821680610cdd57607f821691505b602082108103610cf057610cef610c96565b5b50919050565b7f4e487b7100000000000000000000000000000000000000000000000000000000600052604160045260246000fd5b60008190508160005260206000209050919050565b60006020601f8301049050919050565b600082821b905092915050565b600060088302610d877fffffffffffffffffffffffffffffffffffffffffffffffffffffffffffffffff82610d4a565b610d918683610d4a565b95508019841693508086168417925050509392505050565b6000819050919050565b6000610dce610dc9610dc4846107e1565b610da9565b6107e1565b9050919050565b6000819050919050565b610de883610db3565b610dfc610df482610dd5565b848454610d57565b825550505050565b600090565b610e11610e04565b610e1c818484610ddf565b505050565b5b81811015610e4057610e35600082610e09565b600181019050610e22565b5050565b601f821115610e8557610e5681610d25565b610e5f84610d3a565b81016020851015610e6e578190505b610e82610e7a85610d3a565b830182610e21565b50505b505050565b600082821c905092915050565b6000610ea860001984600802610e8a565b1980831691505092915050565b6000610ec18383610e97565b9150826002028217905092915050565b610eda82610844565b67ffffffffffffffff811115610ef357610ef2610cf6565b5b610efd8254610cc5565b610f08828285610e44565b600060209050601f831160018114610f3b5760008415610f29578287015190505b610f338582610eb5565b865550610f9b565b601f198416610f4986610d25565b60005b82811015610f7157848901518255600182019150602085019450602081019050610f4c565b86831015610f8e5784890151610f8a601f891682610e97565b8355505b6001600288020188555050505b505050505050565b82818337600083830152505050565b6000610fbe838561084f565b9350610fcb838584610fa3565b610fd48361088a565b840190509392505050565b60006060820190508181036000830152610ffa818688610fb2565b90506110096020830185610906565b6110166040830184610915565b9594505050505056fea2646970667358221220a4ef592b750f364b3ecfbb11d4d0eb89fec80b081da82a6f9fb858e131b791b564736f6c63430008110033",
  "linkReferences": {},
  "deployedLinkReferences": {}
}